{
  "_format": "hh-sol-artifact-1",
  "contractName": "Cons",
  "sourceName": "contracts/Cons.sol",
  "abi": [
    {
      "inputs": [],
      "stateMutability": "nonpayable",
      "type": "constructor"
    },
    {
      "inputs": [
        {
          "internalType": "address",
          "name": "spender",
          "type": "address"
        },
        {
          "internalType": "uint256",
          "name": "allowance",
          "type": "uint256"
        },
        {
          "internalType": "uint256",
          "name": "needed",
          "type": "uint256"
        }
      ],
      "name": "ERC20InsufficientAllowance",
      "type": "error"
    },
    {
      "inputs": [
        {
          "internalType": "address",
          "name": "sender",
          "type": "address"
        },
        {
          "internalType": "uint256",
          "name": "balance",
          "type": "uint256"
        },
        {
          "internalType": "uint256",
          "name": "needed",
          "type": "uint256"
        }
      ],
      "name": "ERC20InsufficientBalance",
      "type": "error"
    },
    {
      "inputs": [
        {
          "internalType": "address",
          "name": "approver",
          "type": "address"
        }
      ],
      "name": "ERC20InvalidApprover",
      "type": "error"
    },
    {
      "inputs": [
        {
          "internalType": "address",
          "name": "receiver",
          "type": "address"
        }
      ],
      "name": "ERC20InvalidReceiver",
      "type": "error"
    },
    {
      "inputs": [
        {
          "internalType": "address",
          "name": "sender",
          "type": "address"
        }
      ],
      "name": "ERC20InvalidSender",
      "type": "error"
    },
    {
      "inputs": [
        {
          "internalType": "address",
          "name": "spender",
          "type": "address"
        }
      ],
      "name": "ERC20InvalidSpender",
      "type": "error"
    },
    {
      "inputs": [
        {
          "internalType": "address",
          "name": "owner",
          "type": "address"
        }
      ],
      "name": "OwnableInvalidOwner",
      "type": "error"
    },
    {
      "inputs": [
        {
          "internalType": "address",
          "name": "account",
          "type": "address"
        }
      ],
      "name": "OwnableUnauthorizedAccount",
      "type": "error"
    },
    {
      "anonymous": false,
      "inputs": [
        {
          "indexed": true,
          "internalType": "address",
          "name": "owner",
          "type": "address"
        },
        {
          "indexed": true,
          "internalType": "address",
          "name": "spender",
          "type": "address"
        },
        {
          "indexed": false,
          "internalType": "uint256",
          "name": "value",
          "type": "uint256"
        }
      ],
      "name": "Approval",
      "type": "event"
    },
    {
      "anonymous": false,
      "inputs": [
        {
          "indexed": true,
          "internalType": "address",
          "name": "previousOwner",
          "type": "address"
        },
        {
          "indexed": true,
          "internalType": "address",
          "name": "newOwner",
          "type": "address"
        }
      ],
      "name": "OwnershipTransferred",
      "type": "event"
    },
    {
      "anonymous": false,
      "inputs": [
        {
          "indexed": true,
          "internalType": "address",
          "name": "from",
          "type": "address"
        },
        {
          "indexed": true,
          "internalType": "address",
          "name": "to",
          "type": "address"
        },
        {
          "indexed": false,
          "internalType": "uint256",
          "name": "value",
          "type": "uint256"
        }
      ],
      "name": "Transfer",
      "type": "event"
    },
    {
      "inputs": [
        {
          "internalType": "address",
          "name": "owner",
          "type": "address"
        },
        {
          "internalType": "address",
          "name": "spender",
          "type": "address"
        }
      ],
      "name": "allowance",
      "outputs": [
        {
          "internalType": "uint256",
          "name": "",
          "type": "uint256"
        }
      ],
      "stateMutability": "view",
      "type": "function"
    },
    {
      "inputs": [
        {
          "internalType": "address",
          "name": "spender",
          "type": "address"
        },
        {
          "internalType": "uint256",
          "name": "value",
          "type": "uint256"
        }
      ],
      "name": "approve",
      "outputs": [
        {
          "internalType": "bool",
          "name": "",
          "type": "bool"
        }
      ],
      "stateMutability": "nonpayable",
      "type": "function"
    },
    {
      "inputs": [
        {
          "internalType": "address",
          "name": "account",
          "type": "address"
        }
      ],
      "name": "balanceOf",
      "outputs": [
        {
          "internalType": "uint256",
          "name": "",
          "type": "uint256"
        }
      ],
      "stateMutability": "view",
      "type": "function"
    },
    {
      "inputs": [],
      "name": "decimals",
      "outputs": [
        {
          "internalType": "uint8",
          "name": "",
          "type": "uint8"
        }
      ],
      "stateMutability": "view",
      "type": "function"
    },
    {
      "inputs": [],
      "name": "masterChef",
      "outputs": [
        {
          "internalType": "address",
          "name": "",
          "type": "address"
        }
      ],
      "stateMutability": "view",
      "type": "function"
    },
    {
      "inputs": [
        {
          "internalType": "address",
          "name": "to",
          "type": "address"
        },
        {
          "internalType": "uint256",
          "name": "amount",
          "type": "uint256"
        }
      ],
      "name": "mint",
      "outputs": [],
      "stateMutability": "nonpayable",
      "type": "function"
    },
    {
      "inputs": [],
      "name": "name",
      "outputs": [
        {
          "internalType": "string",
          "name": "",
          "type": "string"
        }
      ],
      "stateMutability": "view",
      "type": "function"
    },
    {
      "inputs": [],
      "name": "owner",
      "outputs": [
        {
          "internalType": "address",
          "name": "",
          "type": "address"
        }
      ],
      "stateMutability": "view",
      "type": "function"
    },
    {
      "inputs": [],
      "name": "renounceOwnership",
      "outputs": [],
      "stateMutability": "nonpayable",
      "type": "function"
    },
    {
      "inputs": [
        {
          "internalType": "address",
          "name": "_masterChef",
          "type": "address"
        }
      ],
      "name": "setMasterChef",
      "outputs": [],
      "stateMutability": "nonpayable",
      "type": "function"
    },
    {
      "inputs": [],
      "name": "symbol",
      "outputs": [
        {
          "internalType": "string",
          "name": "",
          "type": "string"
        }
      ],
      "stateMutability": "view",
      "type": "function"
    },
    {
      "inputs": [],
      "name": "totalSupply",
      "outputs": [
        {
          "internalType": "uint256",
          "name": "",
          "type": "uint256"
        }
      ],
      "stateMutability": "view",
      "type": "function"
    },
    {
      "inputs": [
        {
          "internalType": "address",
          "name": "to",
          "type": "address"
        },
        {
          "internalType": "uint256",
          "name": "value",
          "type": "uint256"
        }
      ],
      "name": "transfer",
      "outputs": [
        {
          "internalType": "bool",
          "name": "",
          "type": "bool"
        }
      ],
      "stateMutability": "nonpayable",
      "type": "function"
    },
    {
      "inputs": [
        {
          "internalType": "address",
          "name": "from",
          "type": "address"
        },
        {
          "internalType": "address",
          "name": "to",
          "type": "address"
        },
        {
          "internalType": "uint256",
          "name": "value",
          "type": "uint256"
        }
      ],
      "name": "transferFrom",
      "outputs": [
        {
          "internalType": "bool",
          "name": "",
          "type": "bool"
        }
      ],
      "stateMutability": "nonpayable",
      "type": "function"
    },
    {
      "inputs": [
        {
          "internalType": "address",
          "name": "newOwner",
          "type": "address"
        }
      ],
      "name": "transferOwnership",
      "outputs": [],
      "stateMutability": "nonpayable",
      "type": "function"
    }
  ],
  "bytecode": "0x60806040523480156200001157600080fd5b50336040518060400160405280601381526020017f436f6e7374656c6c6174696f6e20546f6b656e000000000000000000000000008152506040518060400160405280600481526020017f434f4e5300000000000000000000000000000000000000000000000000000000815250816003908162000090919062000778565b508060049081620000a2919062000778565b505050600073ffffffffffffffffffffffffffffffffffffffff168173ffffffffffffffffffffffffffffffffffffffff16036200011a5760006040517f1e4fbdf7000000000000000000000000000000000000000000000000000000008152600401620001119190620008a4565b60405180910390fd5b6200012b816200017260201b60201c565b506200016c33620001416200023860201b60201c565b600a6200014f919062000a51565b6301406f4062000160919062000aa2565b6200024160201b60201c565b62000b93565b6000600560009054906101000a900473ffffffffffffffffffffffffffffffffffffffff16905081600560006101000a81548173ffffffffffffffffffffffffffffffffffffffff021916908373ffffffffffffffffffffffffffffffffffffffff1602179055508173ffffffffffffffffffffffffffffffffffffffff168173ffffffffffffffffffffffffffffffffffffffff167f8be0079c531659141344cd1fd0a4f28419497f9722a3daafe3b4186f6b6457e060405160405180910390a35050565b60006012905090565b600073ffffffffffffffffffffffffffffffffffffffff168273ffffffffffffffffffffffffffffffffffffffff1603620002b65760006040517fec442f05000000000000000000000000000000000000000000000000000000008152600401620002ad9190620008a4565b60405180910390fd5b620002ca60008383620002ce60201b60201c565b5050565b600073ffffffffffffffffffffffffffffffffffffffff168373ffffffffffffffffffffffffffffffffffffffff16036200032457806002600082825462000317919062000aed565b92505081905550620003fa565b60008060008573ffffffffffffffffffffffffffffffffffffffff1673ffffffffffffffffffffffffffffffffffffffff16815260200190815260200160002054905081811015620003b3578381836040517fe450d38c000000000000000000000000000000000000000000000000000000008152600401620003aa9392919062000b39565b60405180910390fd5b8181036000808673ffffffffffffffffffffffffffffffffffffffff1673ffffffffffffffffffffffffffffffffffffffff16815260200190815260200160002081905550505b600073ffffffffffffffffffffffffffffffffffffffff168273ffffffffffffffffffffffffffffffffffffffff160362000445578060026000828254039250508190555062000492565b806000808473ffffffffffffffffffffffffffffffffffffffff1673ffffffffffffffffffffffffffffffffffffffff168152602001908152602001600020600082825401925050819055505b8173ffffffffffffffffffffffffffffffffffffffff168373ffffffffffffffffffffffffffffffffffffffff167fddf252ad1be2c89b69c2b068fc378daa952ba7f163c4a11628f55a4df523b3ef83604051620004f1919062000b76565b60405180910390a3505050565b600081519050919050565b7f4e487b7100000000000000000000000000000000000000000000000000000000600052604160045260246000fd5b7f4e487b7100000000000000000000000000000000000000000000000000000000600052602260045260246000fd5b600060028204905060018216806200058057607f821691505b60208210810362000596576200059562000538565b5b50919050565b60008190508160005260206000209050919050565b60006020601f8301049050919050565b600082821b905092915050565b600060088302620006007fffffffffffffffffffffffffffffffffffffffffffffffffffffffffffffffff82620005c1565b6200060c8683620005c1565b95508019841693508086168417925050509392505050565b6000819050919050565b6000819050919050565b600062000659620006536200064d8462000624565b6200062e565b62000624565b9050919050565b6000819050919050565b620006758362000638565b6200068d620006848262000660565b848454620005ce565b825550505050565b600090565b620006a462000695565b620006b18184846200066a565b505050565b5b81811015620006d957620006cd6000826200069a565b600181019050620006b7565b5050565b601f8211156200072857620006f2816200059c565b620006fd84620005b1565b810160208510156200070d578190505b620007256200071c85620005b1565b830182620006b6565b50505b505050565b600082821c905092915050565b60006200074d600019846008026200072d565b1980831691505092915050565b60006200076883836200073a565b9150826002028217905092915050565b6200078382620004fe565b67ffffffffffffffff8111156200079f576200079e62000509565b5b620007ab825462000567565b620007b8828285620006dd565b600060209050601f831160018114620007f05760008415620007db578287015190505b620007e785826200075a565b86555062000857565b601f19841662000800866200059c565b60005b828110156200082a5784890151825560018201915060208501945060208101905062000803565b868310156200084a578489015162000846601f8916826200073a565b8355505b6001600288020188555050505b505050505050565b600073ffffffffffffffffffffffffffffffffffffffff82169050919050565b60006200088c826200085f565b9050919050565b6200089e816200087f565b82525050565b6000602082019050620008bb600083018462000893565b92915050565b7f4e487b7100000000000000000000000000000000000000000000000000000000600052601160045260246000fd5b60008160011c9050919050565b6000808291508390505b60018511156200094f57808604811115620009275762000926620008c1565b5b6001851615620009375780820291505b80810290506200094785620008f0565b945062000907565b94509492505050565b6000826200096a576001905062000a3d565b816200097a576000905062000a3d565b81600181146200099357600281146200099e57620009d4565b600191505062000a3d565b60ff841115620009b357620009b2620008c1565b5b8360020a915084821115620009cd57620009cc620008c1565b5b5062000a3d565b5060208310610133831016604e8410600b841016171562000a0e5782820a90508381111562000a085762000a07620008c1565b5b62000a3d565b62000a1d8484846001620008fd565b9250905081840481111562000a375762000a36620008c1565b5b81810290505b9392505050565b600060ff82169050919050565b600062000a5e8262000624565b915062000a6b8362000a44565b925062000a9a7fffffffffffffffffffffffffffffffffffffffffffffffffffffffffffffffff848462000958565b905092915050565b600062000aaf8262000624565b915062000abc8362000624565b925082820262000acc8162000624565b9150828204841483151762000ae65762000ae5620008c1565b5b5092915050565b600062000afa8262000624565b915062000b078362000624565b925082820190508082111562000b225762000b21620008c1565b5b92915050565b62000b338162000624565b82525050565b600060608201905062000b50600083018662000893565b62000b5f602083018562000b28565b62000b6e604083018462000b28565b949350505050565b600060208201905062000b8d600083018462000b28565b92915050565b6113618062000ba36000396000f3fe608060405234801561001057600080fd5b50600436106100f55760003560e01c806370a0823111610097578063a2d9f4dc11610066578063a2d9f4dc14610264578063a9059cbb14610280578063dd62ed3e146102b0578063f2fde38b146102e0576100f5565b806370a08231146101ee578063715018a61461021e5780638da5cb5b1461022857806395d89b4114610246576100f5565b806323b872dd116100d357806323b872dd14610166578063313ce5671461019657806340c10f19146101b4578063575a86b2146101d0576100f5565b806306fdde03146100fa578063095ea7b31461011857806318160ddd14610148575b600080fd5b6101026102fc565b60405161010f9190610f49565b60405180910390f35b610132600480360381019061012d9190611004565b61038e565b60405161013f919061105f565b60405180910390f35b6101506103b1565b60405161015d9190611089565b60405180910390f35b610180600480360381019061017b91906110a4565b6103bb565b60405161018d919061105f565b60405180910390f35b61019e6103ea565b6040516101ab9190611113565b60405180910390f35b6101ce60048036038101906101c99190611004565b6103f3565b005b6101d8610491565b6040516101e5919061113d565b60405180910390f35b61020860048036038101906102039190611158565b6104b7565b6040516102159190611089565b60405180910390f35b6102266104ff565b005b610230610513565b60405161023d919061113d565b60405180910390f35b61024e61053d565b60405161025b9190610f49565b60405180910390f35b61027e60048036038101906102799190611158565b6105cf565b005b61029a60048036038101906102959190611004565b61061b565b6040516102a7919061105f565b60405180910390f35b6102ca60048036038101906102c59190611185565b61063e565b6040516102d79190611089565b60405180910390f35b6102fa60048036038101906102f59190611158565b6106c5565b005b60606003805461030b906111f4565b80601f0160208091040260200160405190810160405280929190818152602001828054610337906111f4565b80156103845780601f1061035957610100808354040283529160200191610384565b820191906000526020600020905b81548152906001019060200180831161036757829003601f168201915b5050505050905090565b60008061039961074b565b90506103a6818585610753565b600191505092915050565b6000600254905090565b6000806103c661074b565b90506103d3858285610765565b6103de8585856107fa565b60019150509392505050565b60006012905090565b600660009054906101000a900473ffffffffffffffffffffffffffffffffffffffff1673ffffffffffffffffffffffffffffffffffffffff163373ffffffffffffffffffffffffffffffffffffffff1614610483576040517f08c379a000000000000000000000000000000000000000000000000000000000815260040161047a90611271565b60405180910390fd5b61048d82826108ee565b5050565b600660009054906101000a900473ffffffffffffffffffffffffffffffffffffffff1681565b60008060008373ffffffffffffffffffffffffffffffffffffffff1673ffffffffffffffffffffffffffffffffffffffff168152602001908152602001600020549050919050565b610507610970565b61051160006109f7565b565b6000600560009054906101000a900473ffffffffffffffffffffffffffffffffffffffff16905090565b60606004805461054c906111f4565b80601f0160208091040260200160405190810160405280929190818152602001828054610578906111f4565b80156105c55780601f1061059a576101008083540402835291602001916105c5565b820191906000526020600020905b8154815290600101906020018083116105a857829003601f168201915b5050505050905090565b6105d7610970565b80600660006101000a81548173ffffffffffffffffffffffffffffffffffffffff021916908373ffffffffffffffffffffffffffffffffffffffff16021790555050565b60008061062661074b565b90506106338185856107fa565b600191505092915050565b6000600160008473ffffffffffffffffffffffffffffffffffffffff1673ffffffffffffffffffffffffffffffffffffffff16815260200190815260200160002060008373ffffffffffffffffffffffffffffffffffffffff1673ffffffffffffffffffffffffffffffffffffffff16815260200190815260200160002054905092915050565b6106cd610970565b600073ffffffffffffffffffffffffffffffffffffffff168173ffffffffffffffffffffffffffffffffffffffff160361073f5760006040517f1e4fbdf7000000000000000000000000000000000000000000000000000000008152600401610736919061113d565b60405180910390fd5b610748816109f7565b50565b600033905090565b6107608383836001610abd565b505050565b6000610771848461063e565b90507fffffffffffffffffffffffffffffffffffffffffffffffffffffffffffffffff8110156107f457818110156107e4578281836040517ffb8f41b20000000000000000000000000000000000000000000000000000000081526004016107db93929190611291565b60405180910390fd5b6107f384848484036000610abd565b5b50505050565b600073ffffffffffffffffffffffffffffffffffffffff168373ffffffffffffffffffffffffffffffffffffffff160361086c5760006040517f96c6fd1e000000000000000000000000000000000000000000000000000000008152600401610863919061113d565b60405180910390fd5b600073ffffffffffffffffffffffffffffffffffffffff168273ffffffffffffffffffffffffffffffffffffffff16036108de5760006040517fec442f050000000000000000000000000000000000000000000000000000000081526004016108d5919061113d565b60405180910390fd5b6108e9838383610c94565b505050565b600073ffffffffffffffffffffffffffffffffffffffff168273ffffffffffffffffffffffffffffffffffffffff16036109605760006040517fec442f05000000000000000000000000000000000000000000000000000000008152600401610957919061113d565b60405180910390fd5b61096c60008383610c94565b5050565b61097861074b565b73ffffffffffffffffffffffffffffffffffffffff16610996610513565b73ffffffffffffffffffffffffffffffffffffffff16146109f5576109b961074b565b6040517f118cdaa70000000000000000000000000000000000000000000000000000000081526004016109ec919061113d565b60405180910390fd5b565b6000600560009054906101000a900473ffffffffffffffffffffffffffffffffffffffff16905081600560006101000a81548173ffffffffffffffffffffffffffffffffffffffff021916908373ffffffffffffffffffffffffffffffffffffffff1602179055508173ffffffffffffffffffffffffffffffffffffffff168173ffffffffffffffffffffffffffffffffffffffff167f8be0079c531659141344cd1fd0a4f28419497f9722a3daafe3b4186f6b6457e060405160405180910390a35050565b600073ffffffffffffffffffffffffffffffffffffffff168473ffffffffffffffffffffffffffffffffffffffff1603610b2f5760006040517fe602df05000000000000000000000000000000000000000000000000000000008152600401610b26919061113d565b60405180910390fd5b600073ffffffffffffffffffffffffffffffffffffffff168373ffffffffffffffffffffffffffffffffffffffff1603610ba15760006040517f94280d62000000000000000000000000000000000000000000000000000000008152600401610b98919061113d565b60405180910390fd5b81600160008673ffffffffffffffffffffffffffffffffffffffff1673ffffffffffffffffffffffffffffffffffffffff16815260200190815260200160002060008573ffffffffffffffffffffffffffffffffffffffff1673ffffffffffffffffffffffffffffffffffffffff168152602001908152602001600020819055508015610c8e578273ffffffffffffffffffffffffffffffffffffffff168473ffffffffffffffffffffffffffffffffffffffff167f8c5be1e5ebec7d5bd14f71427d1e84f3dd0314c0f7b2291e5b200ac8c7c3b92584604051610c859190611089565b60405180910390a35b50505050565b600073ffffffffffffffffffffffffffffffffffffffff168373ffffffffffffffffffffffffffffffffffffffff1603610ce6578060026000828254610cda91906112f7565b92505081905550610db9565b60008060008573ffffffffffffffffffffffffffffffffffffffff1673ffffffffffffffffffffffffffffffffffffffff16815260200190815260200160002054905081811015610d72578381836040517fe450d38c000000000000000000000000000000000000000000000000000000008152600401610d6993929190611291565b60405180910390fd5b8181036000808673ffffffffffffffffffffffffffffffffffffffff1673ffffffffffffffffffffffffffffffffffffffff16815260200190815260200160002081905550505b600073ffffffffffffffffffffffffffffffffffffffff168273ffffffffffffffffffffffffffffffffffffffff1603610e025780600260008282540392505081905550610e4f565b806000808473ffffffffffffffffffffffffffffffffffffffff1673ffffffffffffffffffffffffffffffffffffffff168152602001908152602001600020600082825401925050819055505b8173ffffffffffffffffffffffffffffffffffffffff168373ffffffffffffffffffffffffffffffffffffffff167fddf252ad1be2c89b69c2b068fc378daa952ba7f163c4a11628f55a4df523b3ef83604051610eac9190611089565b60405180910390a3505050565b600081519050919050565b600082825260208201905092915050565b60005b83811015610ef3578082015181840152602081019050610ed8565b60008484015250505050565b6000601f19601f8301169050919050565b6000610f1b82610eb9565b610f258185610ec4565b9350610f35818560208601610ed5565b610f3e81610eff565b840191505092915050565b60006020820190508181036000830152610f638184610f10565b905092915050565b600080fd5b600073ffffffffffffffffffffffffffffffffffffffff82169050919050565b6000610f9b82610f70565b9050919050565b610fab81610f90565b8114610fb657600080fd5b50565b600081359050610fc881610fa2565b92915050565b6000819050919050565b610fe181610fce565b8114610fec57600080fd5b50565b600081359050610ffe81610fd8565b92915050565b6000806040838503121561101b5761101a610f6b565b5b600061102985828601610fb9565b925050602061103a85828601610fef565b9150509250929050565b60008115159050919050565b61105981611044565b82525050565b60006020820190506110746000830184611050565b92915050565b61108381610fce565b82525050565b600060208201905061109e600083018461107a565b92915050565b6000806000606084860312156110bd576110bc610f6b565b5b60006110cb86828701610fb9565b93505060206110dc86828701610fb9565b92505060406110ed86828701610fef565b9150509250925092565b600060ff82169050919050565b61110d816110f7565b82525050565b60006020820190506111286000830184611104565b92915050565b61113781610f90565b82525050565b6000602082019050611152600083018461112e565b92915050565b60006020828403121561116e5761116d610f6b565b5b600061117c84828501610fb9565b91505092915050565b6000806040838503121561119c5761119b610f6b565b5b60006111aa85828601610fb9565b92505060206111bb85828601610fb9565b9150509250929050565b7f4e487b7100000000000000000000000000000000000000000000000000000000600052602260045260246000fd5b6000600282049050600182168061120c57607f821691505b60208210810361121f5761121e6111c5565b5b50919050565b7f4f6e6c79204d6173746572436865662063616e206d696e740000000000000000600082015250565b600061125b601883610ec4565b915061126682611225565b602082019050919050565b6000602082019050818103600083015261128a8161124e565b9050919050565b60006060820190506112a6600083018661112e565b6112b3602083018561107a565b6112c0604083018461107a565b949350505050565b7f4e487b7100000000000000000000000000000000000000000000000000000000600052601160045260246000fd5b600061130282610fce565b915061130d83610fce565b9250828201905080821115611325576113246112c8565b5b9291505056fea26469706673582212202db826798fed229dfd1e61ccb9b6498c240f4186ccc4927562a6e6fb7c8e2ce264736f6c63430008140033",
  "linkReferences": {},
  "deployedLinkReferences": {}
}