{
  "_format": "hh-sol-artifact-1",
  "contractName": "Router",
  "sourceName": "contracts/Router.sol",
  "abi": [
    {
      "inputs": [
        {
          "internalType": "address",
          "name": "_factory",
          "type": "address"
        },
        {
          "internalType": "address",
          "name": "_weth",
          "type": "address"
        }
      ],
      "stateMutability": "nonpayable",
      "type": "constructor"
    },
    {
      "inputs": [],
      "name": "ReentrancyGuardReentrantCall",
      "type": "error"
    },
    {
      "inputs": [
        {
          "internalType": "address",
          "name": "tokenA",
          "type": "address"
        },
        {
          "internalType": "address",
          "name": "tokenB",
          "type": "address"
        },
        {
          "internalType": "uint256",
          "name": "amountADesired",
          "type": "uint256"
        },
        {
          "internalType": "uint256",
          "name": "amountBDesired",
          "type": "uint256"
        },
        {
          "internalType": "uint256",
          "name": "amountAMin",
          "type": "uint256"
        },
        {
          "internalType": "uint256",
          "name": "amountBMin",
          "type": "uint256"
        },
        {
          "internalType": "address",
          "name": "to",
          "type": "address"
        },
        {
          "internalType": "uint256",
          "name": "deadline",
          "type": "uint256"
        }
      ],
      "name": "addLiquidity",
      "outputs": [
        {
          "internalType": "uint256",
          "name": "amountA",
          "type": "uint256"
        },
        {
          "internalType": "uint256",
          "name": "amountB",
          "type": "uint256"
        },
        {
          "internalType": "uint256",
          "name": "liquidity",
          "type": "uint256"
        }
      ],
      "stateMutability": "nonpayable",
      "type": "function"
    },
    {
      "inputs": [],
      "name": "factory",
      "outputs": [
        {
          "internalType": "address",
          "name": "",
          "type": "address"
        }
      ],
      "stateMutability": "view",
      "type": "function"
    },
    {
      "inputs": [
        {
          "internalType": "address",
          "name": "tokenA",
          "type": "address"
        },
        {
          "internalType": "address",
          "name": "tokenB",
          "type": "address"
        },
        {
          "internalType": "uint256",
          "name": "liquidity",
          "type": "uint256"
        },
        {
          "internalType": "uint256",
          "name": "amountAMin",
          "type": "uint256"
        },
        {
          "internalType": "uint256",
          "name": "amountBMin",
          "type": "uint256"
        },
        {
          "internalType": "address",
          "name": "to",
          "type": "address"
        },
        {
          "internalType": "uint256",
          "name": "deadline",
          "type": "uint256"
        }
      ],
      "name": "removeLiquidity",
      "outputs": [
        {
          "internalType": "uint256",
          "name": "amountA",
          "type": "uint256"
        },
        {
          "internalType": "uint256",
          "name": "amountB",
          "type": "uint256"
        }
      ],
      "stateMutability": "nonpayable",
      "type": "function"
    },
    {
      "inputs": [
        {
          "internalType": "uint256",
          "name": "amountIn",
          "type": "uint256"
        },
        {
          "internalType": "uint256",
          "name": "amountOutMin",
          "type": "uint256"
        },
        {
          "internalType": "address[]",
          "name": "path",
          "type": "address[]"
        },
        {
          "internalType": "address",
          "name": "to",
          "type": "address"
        },
        {
          "internalType": "uint256",
          "name": "deadline",
          "type": "uint256"
        }
      ],
      "name": "swapExactTokensForTokens",
      "outputs": [
        {
          "internalType": "uint256[]",
          "name": "amounts",
          "type": "uint256[]"
        }
      ],
      "stateMutability": "nonpayable",
      "type": "function"
    },
    {
      "inputs": [],
      "name": "weth",
      "outputs": [
        {
          "internalType": "address",
          "name": "",
          "type": "address"
        }
      ],
      "stateMutability": "view",
      "type": "function"
    }
  ],
  "bytecode": "0x60806040523480156200001157600080fd5b506040516200117638038062001176833981810160405281019062000037919062000133565b600160008190555081600160006101000a81548173ffffffffffffffffffffffffffffffffffffffff021916908373ffffffffffffffffffffffffffffffffffffffff16021790555080600260006101000a81548173ffffffffffffffffffffffffffffffffffffffff021916908373ffffffffffffffffffffffffffffffffffffffff16021790555050506200017a565b600080fd5b600073ffffffffffffffffffffffffffffffffffffffff82169050919050565b6000620000fb82620000ce565b9050919050565b6200010d81620000ee565b81146200011957600080fd5b50565b6000815190506200012d8162000102565b92915050565b600080604083850312156200014d576200014c620000c9565b5b60006200015d858286016200011c565b925050602062000170858286016200011c565b9150509250929050565b610fec806200018a6000396000f3fe608060405234801561001057600080fd5b50600436106100575760003560e01c806338ed17391461005c5780633fc8cef31461008c578063baa2abde146100aa578063c45a0155146100db578063e8e33700146100f9575b600080fd5b61007660048036038101906100719190610847565b61012b565b604051610083919061099f565b60405180910390f35b61009461041e565b6040516100a191906109d0565b60405180910390f35b6100c460048036038101906100bf91906109eb565b610444565b6040516100d2929190610a9c565b60405180910390f35b6100e36105b2565b6040516100f091906109d0565b60405180910390f35b610113600480360381019061010e9190610ac5565b6105d8565b60405161012293929190610b7b565b60405180910390f35b606042821015610170576040517f08c379a000000000000000000000000000000000000000000000000000000000815260040161016790610c0f565b60405180910390fd5b60028585905010156101b7576040517f08c379a00000000000000000000000000000000000000000000000000000000081526004016101ae90610c7b565b60405180910390fd5b848460008181106101cb576101ca610c9b565b5b90506020020160208101906101e09190610cca565b73ffffffffffffffffffffffffffffffffffffffff166323b872dd33308a6040518463ffffffff1660e01b815260040161021c93929190610cf7565b6020604051808303816000875af115801561023b573d6000803e3d6000fd5b505050506040513d601f19601f8201168201806040525081019061025f9190610d66565b50600060646063896102719190610dc2565b61027b9190610e33565b9050868110156102c0576040517f08c379a00000000000000000000000000000000000000000000000000000000081526004016102b790610ed6565b60405180910390fd5b85856001888890506102d29190610ef6565b8181106102e2576102e1610c9b565b5b90506020020160208101906102f79190610cca565b73ffffffffffffffffffffffffffffffffffffffff1663a9059cbb85836040518363ffffffff1660e01b8152600401610331929190610f2a565b6020604051808303816000875af1158015610350573d6000803e3d6000fd5b505050506040513d601f19601f820116820180604052508101906103749190610d66565b508585905067ffffffffffffffff81111561039257610391610f53565b5b6040519080825280602002602001820160405280156103c05781602001602082028036833780820191505090505b50915087826000815181106103d8576103d7610c9b565b5b60200260200101818152505080826001888890506103f69190610ef6565b8151811061040757610406610c9b565b5b602002602001018181525050509695505050505050565b600260009054906101000a900473ffffffffffffffffffffffffffffffffffffffff1681565b6000804283101561048a576040517f08c379a000000000000000000000000000000000000000000000000000000000815260040161048190610c0f565b60405180910390fd5b6002876104979190610e33565b91506002876104a69190610e33565b90508873ffffffffffffffffffffffffffffffffffffffff1663a9059cbb85846040518363ffffffff1660e01b81526004016104e3929190610f2a565b6020604051808303816000875af1158015610502573d6000803e3d6000fd5b505050506040513d601f19601f820116820180604052508101906105269190610d66565b508773ffffffffffffffffffffffffffffffffffffffff1663a9059cbb85836040518363ffffffff1660e01b8152600401610562929190610f2a565b6020604051808303816000875af1158015610581573d6000803e3d6000fd5b505050506040513d601f19601f820116820180604052508101906105a59190610d66565b5097509795505050505050565b600160009054906101000a900473ffffffffffffffffffffffffffffffffffffffff1681565b600080600042841015610620576040517f08c379a000000000000000000000000000000000000000000000000000000000815260040161061790610c0f565b60405180910390fd5b8a73ffffffffffffffffffffffffffffffffffffffff166323b872dd33308c6040518463ffffffff1660e01b815260040161065d93929190610cf7565b6020604051808303816000875af115801561067c573d6000803e3d6000fd5b505050506040513d601f19601f820116820180604052508101906106a09190610d66565b508973ffffffffffffffffffffffffffffffffffffffff166323b872dd33308b6040518463ffffffff1660e01b81526004016106de93929190610cf7565b6020604051808303816000875af11580156106fd573d6000803e3d6000fd5b505050506040513d601f19601f820116820180604052508101906107219190610d66565b5088925087915081836107349190610f82565b9050985098509895505050505050565b600080fd5b600080fd5b6000819050919050565b6107618161074e565b811461076c57600080fd5b50565b60008135905061077e81610758565b92915050565b600080fd5b600080fd5b600080fd5b60008083601f8401126107a9576107a8610784565b5b8235905067ffffffffffffffff8111156107c6576107c5610789565b5b6020830191508360208202830111156107e2576107e161078e565b5b9250929050565b600073ffffffffffffffffffffffffffffffffffffffff82169050919050565b6000610814826107e9565b9050919050565b61082481610809565b811461082f57600080fd5b50565b6000813590506108418161081b565b92915050565b60008060008060008060a0878903121561086457610863610744565b5b600061087289828a0161076f565b965050602061088389828a0161076f565b955050604087013567ffffffffffffffff8111156108a4576108a3610749565b5b6108b089828a01610793565b945094505060606108c389828a01610832565b92505060806108d489828a0161076f565b9150509295509295509295565b600081519050919050565b600082825260208201905092915050565b6000819050602082019050919050565b6109168161074e565b82525050565b6000610928838361090d565b60208301905092915050565b6000602082019050919050565b600061094c826108e1565b61095681856108ec565b9350610961836108fd565b8060005b83811015610992578151610979888261091c565b975061098483610934565b925050600181019050610965565b5085935050505092915050565b600060208201905081810360008301526109b98184610941565b905092915050565b6109ca81610809565b82525050565b60006020820190506109e560008301846109c1565b92915050565b600080600080600080600060e0888a031215610a0a57610a09610744565b5b6000610a188a828b01610832565b9750506020610a298a828b01610832565b9650506040610a3a8a828b0161076f565b9550506060610a4b8a828b0161076f565b9450506080610a5c8a828b0161076f565b93505060a0610a6d8a828b01610832565b92505060c0610a7e8a828b0161076f565b91505092959891949750929550565b610a968161074e565b82525050565b6000604082019050610ab16000830185610a8d565b610abe6020830184610a8d565b9392505050565b600080600080600080600080610100898b031215610ae657610ae5610744565b5b6000610af48b828c01610832565b9850506020610b058b828c01610832565b9750506040610b168b828c0161076f565b9650506060610b278b828c0161076f565b9550506080610b388b828c0161076f565b94505060a0610b498b828c0161076f565b93505060c0610b5a8b828c01610832565b92505060e0610b6b8b828c0161076f565b9150509295985092959890939650565b6000606082019050610b906000830186610a8d565b610b9d6020830185610a8d565b610baa6040830184610a8d565b949350505050565b600082825260208201905092915050565b7f526f757465723a20455850495245440000000000000000000000000000000000600082015250565b6000610bf9600f83610bb2565b9150610c0482610bc3565b602082019050919050565b60006020820190508181036000830152610c2881610bec565b9050919050565b7f526f757465723a20494e56414c49445f50415448000000000000000000000000600082015250565b6000610c65601483610bb2565b9150610c7082610c2f565b602082019050919050565b60006020820190508181036000830152610c9481610c58565b9050919050565b7f4e487b7100000000000000000000000000000000000000000000000000000000600052603260045260246000fd5b600060208284031215610ce057610cdf610744565b5b6000610cee84828501610832565b91505092915050565b6000606082019050610d0c60008301866109c1565b610d1960208301856109c1565b610d266040830184610a8d565b949350505050565b60008115159050919050565b610d4381610d2e565b8114610d4e57600080fd5b50565b600081519050610d6081610d3a565b92915050565b600060208284031215610d7c57610d7b610744565b5b6000610d8a84828501610d51565b91505092915050565b7f4e487b7100000000000000000000000000000000000000000000000000000000600052601160045260246000fd5b6000610dcd8261074e565b9150610dd88361074e565b9250828202610de68161074e565b91508282048414831517610dfd57610dfc610d93565b5b5092915050565b7f4e487b7100000000000000000000000000000000000000000000000000000000600052601260045260246000fd5b6000610e3e8261074e565b9150610e498361074e565b925082610e5957610e58610e04565b5b828204905092915050565b7f526f757465723a20494e53554646494349454e545f4f55545055545f414d4f5560008201527f4e54000000000000000000000000000000000000000000000000000000000000602082015250565b6000610ec0602283610bb2565b9150610ecb82610e64565b604082019050919050565b60006020820190508181036000830152610eef81610eb3565b9050919050565b6000610f018261074e565b9150610f0c8361074e565b9250828203905081811115610f2457610f23610d93565b5b92915050565b6000604082019050610f3f60008301856109c1565b610f4c6020830184610a8d565b9392505050565b7f4e487b7100000000000000000000000000000000000000000000000000000000600052604160045260246000fd5b6000610f8d8261074e565b9150610f988361074e565b9250828201905080821115610fb057610faf610d93565b5b9291505056fea2646970667358221220ff74604a06afc8c91f8352e281195491f23daa1e7c9445a0f74e98cebaaa2ccd64736f6c63430008140033",
  "linkReferences": {},
  "deployedLinkReferences": {}
}