{
  "_format": "hh-sol-artifact-1",
  "contractName": "MasterChef",
  "sourceName": "contracts/MasterChef.sol",
  "abi": [
    {
      "inputs": [
        {
          "internalType": "address",
          "name": "_cons",
          "type": "address"
        },
        {
          "internalType": "uint256",
          "name": "_consPerBlock",
          "type": "uint256"
        },
        {
          "internalType": "uint256",
          "name": "_startBlock",
          "type": "uint256"
        }
      ],
      "stateMutability": "nonpayable",
      "type": "constructor"
    },
    {
      "inputs": [
        {
          "internalType": "address",
          "name": "owner",
          "type": "address"
        }
      ],
      "name": "OwnableInvalidOwner",
      "type": "error"
    },
    {
      "inputs": [
        {
          "internalType": "address",
          "name": "account",
          "type": "address"
        }
      ],
      "name": "OwnableUnauthorizedAccount",
      "type": "error"
    },
    {
      "inputs": [],
      "name": "ReentrancyGuardReentrantCall",
      "type": "error"
    },
    {
      "anonymous": false,
      "inputs": [
        {
          "indexed": true,
          "internalType": "address",
          "name": "user",
          "type": "address"
        },
        {
          "indexed": true,
          "internalType": "uint256",
          "name": "pid",
          "type": "uint256"
        },
        {
          "indexed": false,
          "internalType": "uint256",
          "name": "amount",
          "type": "uint256"
        }
      ],
      "name": "Deposit",
      "type": "event"
    },
    {
      "anonymous": false,
      "inputs": [
        {
          "indexed": true,
          "internalType": "address",
          "name": "user",
          "type": "address"
        },
        {
          "indexed": true,
          "internalType": "uint256",
          "name": "pid",
          "type": "uint256"
        },
        {
          "indexed": false,
          "internalType": "uint256",
          "name": "amount",
          "type": "uint256"
        }
      ],
      "name": "EmergencyWithdraw",
      "type": "event"
    },
    {
      "anonymous": false,
      "inputs": [
        {
          "indexed": true,
          "internalType": "address",
          "name": "previousOwner",
          "type": "address"
        },
        {
          "indexed": true,
          "internalType": "address",
          "name": "newOwner",
          "type": "address"
        }
      ],
      "name": "OwnershipTransferred",
      "type": "event"
    },
    {
      "anonymous": false,
      "inputs": [
        {
          "indexed": true,
          "internalType": "address",
          "name": "user",
          "type": "address"
        },
        {
          "indexed": true,
          "internalType": "uint256",
          "name": "pid",
          "type": "uint256"
        },
        {
          "indexed": false,
          "internalType": "uint256",
          "name": "amount",
          "type": "uint256"
        }
      ],
      "name": "Withdraw",
      "type": "event"
    },
    {
      "inputs": [],
      "name": "BONUS_MULTIPLIER",
      "outputs": [
        {
          "internalType": "uint256",
          "name": "",
          "type": "uint256"
        }
      ],
      "stateMutability": "view",
      "type": "function"
    },
    {
      "inputs": [
        {
          "internalType": "uint256",
          "name": "_allocPoint",
          "type": "uint256"
        },
        {
          "internalType": "contract IERC20",
          "name": "_lpToken",
          "type": "address"
        },
        {
          "internalType": "bool",
          "name": "_withUpdate",
          "type": "bool"
        }
      ],
      "name": "add",
      "outputs": [],
      "stateMutability": "nonpayable",
      "type": "function"
    },
    {
      "inputs": [],
      "name": "cons",
      "outputs": [
        {
          "internalType": "contract IERC20",
          "name": "",
          "type": "address"
        }
      ],
      "stateMutability": "view",
      "type": "function"
    },
    {
      "inputs": [],
      "name": "consPerBlock",
      "outputs": [
        {
          "internalType": "uint256",
          "name": "",
          "type": "uint256"
        }
      ],
      "stateMutability": "view",
      "type": "function"
    },
    {
      "inputs": [
        {
          "internalType": "uint256",
          "name": "_pid",
          "type": "uint256"
        },
        {
          "internalType": "uint256",
          "name": "_amount",
          "type": "uint256"
        }
      ],
      "name": "deposit",
      "outputs": [],
      "stateMutability": "nonpayable",
      "type": "function"
    },
    {
      "inputs": [
        {
          "internalType": "uint256",
          "name": "_pid",
          "type": "uint256"
        }
      ],
      "name": "emergencyWithdraw",
      "outputs": [],
      "stateMutability": "nonpayable",
      "type": "function"
    },
    {
      "inputs": [
        {
          "internalType": "uint256",
          "name": "_from",
          "type": "uint256"
        },
        {
          "internalType": "uint256",
          "name": "_to",
          "type": "uint256"
        }
      ],
      "name": "getMultiplier",
      "outputs": [
        {
          "internalType": "uint256",
          "name": "",
          "type": "uint256"
        }
      ],
      "stateMutability": "pure",
      "type": "function"
    },
    {
      "inputs": [],
      "name": "massUpdatePools",
      "outputs": [],
      "stateMutability": "nonpayable",
      "type": "function"
    },
    {
      "inputs": [],
      "name": "owner",
      "outputs": [
        {
          "internalType": "address",
          "name": "",
          "type": "address"
        }
      ],
      "stateMutability": "view",
      "type": "function"
    },
    {
      "inputs": [
        {
          "internalType": "uint256",
          "name": "_pid",
          "type": "uint256"
        },
        {
          "internalType": "address",
          "name": "_user",
          "type": "address"
        }
      ],
      "name": "pendingCons",
      "outputs": [
        {
          "internalType": "uint256",
          "name": "",
          "type": "uint256"
        }
      ],
      "stateMutability": "view",
      "type": "function"
    },
    {
      "inputs": [
        {
          "internalType": "uint256",
          "name": "",
          "type": "uint256"
        }
      ],
      "name": "poolInfo",
      "outputs": [
        {
          "internalType": "contract IERC20",
          "name": "lpToken",
          "type": "address"
        },
        {
          "internalType": "uint256",
          "name": "allocPoint",
          "type": "uint256"
        },
        {
          "internalType": "uint256",
          "name": "lastRewardBlock",
          "type": "uint256"
        },
        {
          "internalType": "uint256",
          "name": "accConsPerShare",
          "type": "uint256"
        }
      ],
      "stateMutability": "view",
      "type": "function"
    },
    {
      "inputs": [],
      "name": "poolLength",
      "outputs": [
        {
          "internalType": "uint256",
          "name": "",
          "type": "uint256"
        }
      ],
      "stateMutability": "view",
      "type": "function"
    },
    {
      "inputs": [],
      "name": "renounceOwnership",
      "outputs": [],
      "stateMutability": "nonpayable",
      "type": "function"
    },
    {
      "inputs": [
        {
          "internalType": "uint256",
          "name": "_pid",
          "type": "uint256"
        },
        {
          "internalType": "uint256",
          "name": "_allocPoint",
          "type": "uint256"
        },
        {
          "internalType": "bool",
          "name": "_withUpdate",
          "type": "bool"
        }
      ],
      "name": "set",
      "outputs": [],
      "stateMutability": "nonpayable",
      "type": "function"
    },
    {
      "inputs": [],
      "name": "startBlock",
      "outputs": [
        {
          "internalType": "uint256",
          "name": "",
          "type": "uint256"
        }
      ],
      "stateMutability": "view",
      "type": "function"
    },
    {
      "inputs": [],
      "name": "totalAllocPoint",
      "outputs": [
        {
          "internalType": "uint256",
          "name": "",
          "type": "uint256"
        }
      ],
      "stateMutability": "view",
      "type": "function"
    },
    {
      "inputs": [
        {
          "internalType": "address",
          "name": "newOwner",
          "type": "address"
        }
      ],
      "name": "transferOwnership",
      "outputs": [],
      "stateMutability": "nonpayable",
      "type": "function"
    },
    {
      "inputs": [
        {
          "internalType": "uint256",
          "name": "_consPerBlock",
          "type": "uint256"
        }
      ],
      "name": "updateConsPerBlock",
      "outputs": [],
      "stateMutability": "nonpayable",
      "type": "function"
    },
    {
      "inputs": [
        {
          "internalType": "uint256",
          "name": "_pid",
          "type": "uint256"
        }
      ],
      "name": "updatePool",
      "outputs": [],
      "stateMutability": "nonpayable",
      "type": "function"
    },
    {
      "inputs": [
        {
          "internalType": "uint256",
          "name": "",
          "type": "uint256"
        },
        {
          "internalType": "address",
          "name": "",
          "type": "address"
        }
      ],
      "name": "userInfo",
      "outputs": [
        {
          "internalType": "uint256",
          "name": "amount",
          "type": "uint256"
        },
        {
          "internalType": "uint256",
          "name": "rewardDebt",
          "type": "uint256"
        }
      ],
      "stateMutability": "view",
      "type": "function"
    },
    {
      "inputs": [
        {
          "internalType": "uint256",
          "name": "_pid",
          "type": "uint256"
        },
        {
          "internalType": "uint256",
          "name": "_amount",
          "type": "uint256"
        }
      ],
      "name": "withdraw",
      "outputs": [],
      "stateMutability": "nonpayable",
      "type": "function"
    }
  ],
  "bytecode": "0x608060405260006007553480156200001657600080fd5b5060405162001ecb38038062001ecb83398181016040528101906200003c91906200028c565b33600073ffffffffffffffffffffffffffffffffffffffff168173ffffffffffffffffffffffffffffffffffffffff1603620000b25760006040517f1e4fbdf7000000000000000000000000000000000000000000000000000000008152600401620000a99190620002f9565b60405180910390fd5b620000c3816200012360201b60201c565b506001808190555082600260006101000a81548173ffffffffffffffffffffffffffffffffffffffff021916908373ffffffffffffffffffffffffffffffffffffffff160217905550816003819055508060048190555050505062000316565b60008060009054906101000a900473ffffffffffffffffffffffffffffffffffffffff169050816000806101000a81548173ffffffffffffffffffffffffffffffffffffffff021916908373ffffffffffffffffffffffffffffffffffffffff1602179055508173ffffffffffffffffffffffffffffffffffffffff168173ffffffffffffffffffffffffffffffffffffffff167f8be0079c531659141344cd1fd0a4f28419497f9722a3daafe3b4186f6b6457e060405160405180910390a35050565b600080fd5b600073ffffffffffffffffffffffffffffffffffffffff82169050919050565b60006200021982620001ec565b9050919050565b6200022b816200020c565b81146200023757600080fd5b50565b6000815190506200024b8162000220565b92915050565b6000819050919050565b620002668162000251565b81146200027257600080fd5b50565b60008151905062000286816200025b565b92915050565b600080600060608486031215620002a857620002a7620001e7565b5b6000620002b8868287016200023a565b9350506020620002cb8682870162000275565b9250506040620002de8682870162000275565b9150509250925092565b620002f3816200020c565b82525050565b6000602082019050620003106000830184620002e8565b92915050565b611ba580620003266000396000f3fe608060405234801561001057600080fd5b50600436106101375760003560e01c8063630b5ba1116100b85780638da5cb5b1161007c5780638da5cb5b146102df5780638dbb1e3a146102fd57806393f1a40b1461032d5780639dd8d73d1461035e578063e2bbb1581461038e578063f2fde38b146103aa57610137565b8063630b5ba11461027557806364482f791461027f578063715018a61461029b5780637c6c0ea3146102a55780638aa28550146102c157610137565b8063441a3e70116100ff578063441a3e70146101e5578063465c9df41461020157806348cd4cb11461021f57806351eb05a61461023d5780635312ea8e1461025957610137565b8063081e3eda1461013c57806314ad72ec1461015a5780631526fe271461017857806317caf6f1146101ab5780631eaaa045146101c9575b600080fd5b6101446103c6565b60405161015191906114ac565b60405180910390f35b6101626103d3565b60405161016f91906114ac565b60405180910390f35b610192600480360381019061018d91906114f8565b6103d9565b6040516101a294939291906115a4565b60405180910390f35b6101b3610439565b6040516101c091906114ac565b60405180910390f35b6101e360048036038101906101de9190611671565b61043f565b005b6101ff60048036038101906101fa91906116c4565b610551565b005b6102096107bd565b6040516102169190611704565b60405180910390f35b6102276107e3565b60405161023491906114ac565b60405180910390f35b610257600480360381019061025291906114f8565b6107e9565b005b610273600480360381019061026e91906114f8565b61095e565b005b61027d610afb565b005b6102996004803603810190610294919061171f565b610b2e565b005b6102a3610bb8565b005b6102bf60048036038101906102ba91906114f8565b610bcc565b005b6102c9610be6565b6040516102d691906114ac565b60405180910390f35b6102e7610beb565b6040516102f49190611781565b60405180910390f35b610317600480360381019061031291906116c4565b610c14565b60405161032491906114ac565b60405180910390f35b610347600480360381019061034291906117c8565b610c2a565b604051610355929190611808565b60405180910390f35b610378600480360381019061037391906117c8565b610c5b565b60405161038591906114ac565b60405180910390f35b6103a860048036038101906103a391906116c4565b610e41565b005b6103c460048036038101906103bf9190611831565b611076565b005b6000600580549050905090565b60035481565b600581815481106103e957600080fd5b90600052602060002090600402016000915090508060000160009054906101000a900473ffffffffffffffffffffffffffffffffffffffff16908060010154908060020154908060030154905084565b60075481565b6104476110fc565b801561045657610455610afb565b5b600060045443116104695760045461046b565b435b90508360075461047b919061188d565b600781905550600560405180608001604052808573ffffffffffffffffffffffffffffffffffffffff1681526020018681526020018381526020016000815250908060018154018082558091505060019003906000526020600020906004020160009091909190915060008201518160000160006101000a81548173ffffffffffffffffffffffffffffffffffffffff021916908373ffffffffffffffffffffffffffffffffffffffff160217905550602082015181600101556040820151816002015560608201518160030155505050505050565b610559611183565b60006005838154811061056f5761056e6118c1565b5b9060005260206000209060040201905060006006600085815260200190815260200160002060003373ffffffffffffffffffffffffffffffffffffffff1673ffffffffffffffffffffffffffffffffffffffff1681526020019081526020016000209050828160000154101561061a576040517f08c379a00000000000000000000000000000000000000000000000000000000081526004016106119061194d565b60405180910390fd5b610623846107e9565b6000816001015464e8d4a5100084600301548460000154610644919061196d565b61064e91906119de565b6106589190611a0f565b9050600081111561066e5761066d33826111c9565b5b6000841115610733578382600001546106879190611a0f565b82600001819055508260000160009054906101000a900473ffffffffffffffffffffffffffffffffffffffff1673ffffffffffffffffffffffffffffffffffffffff1663a9059cbb33866040518363ffffffff1660e01b81526004016106ee929190611a43565b6020604051808303816000875af115801561070d573d6000803e3d6000fd5b505050506040513d601f19601f820116820180604052508101906107319190611a81565b505b64e8d4a510008360030154836000015461074d919061196d565b61075791906119de565b8260010181905550843373ffffffffffffffffffffffffffffffffffffffff167ff279e6a1f5e320cca91135676d9cb6e44ca8a08c0b88342bcdb1144f6511b568866040516107a691906114ac565b60405180910390a35050506107b96113be565b5050565b600260009054906101000a900473ffffffffffffffffffffffffffffffffffffffff1681565b60045481565b6000600582815481106107ff576107fe6118c1565b5b9060005260206000209060040201905080600201544311610820575061095b565b60008160000160009054906101000a900473ffffffffffffffffffffffffffffffffffffffff1673ffffffffffffffffffffffffffffffffffffffff166370a08231306040518263ffffffff1660e01b815260040161087f9190611781565b602060405180830381865afa15801561089c573d6000803e3d6000fd5b505050506040513d601f19601f820116820180604052508101906108c09190611ac3565b9050600081036108da57438260020181905550505061095b565b60006108ea836002015443610c14565b90506000600754846001015460035484610904919061196d565b61090e919061196d565b61091891906119de565b90508264e8d4a510008261092c919061196d565b61093691906119de565b8460030154610945919061188d565b8460030181905550438460020181905550505050505b50565b610966611183565b60006005828154811061097c5761097b6118c1565b5b9060005260206000209060040201905060006006600084815260200190815260200160002060003373ffffffffffffffffffffffffffffffffffffffff1673ffffffffffffffffffffffffffffffffffffffff16815260200190815260200160002090508160000160009054906101000a900473ffffffffffffffffffffffffffffffffffffffff1673ffffffffffffffffffffffffffffffffffffffff1663a9059cbb3383600001546040518363ffffffff1660e01b8152600401610a43929190611a43565b6020604051808303816000875af1158015610a62573d6000803e3d6000fd5b505050506040513d601f19601f82011682018060405250810190610a869190611a81565b50823373ffffffffffffffffffffffffffffffffffffffff167fbb757047c2b5f3974fe26b7c10f732e7bce710b0952a71082702781e62ae05958360000154604051610ad291906114ac565b60405180910390a360008160000181905550600081600101819055505050610af86113be565b50565b6000600580549050905060005b81811015610b2a57610b19816107e9565b80610b2390611af0565b9050610b08565b5050565b610b366110fc565b8015610b4557610b44610afb565b5b8160058481548110610b5a57610b596118c1565b5b906000526020600020906004020160010154600754610b799190611a0f565b610b83919061188d565b6007819055508160058481548110610b9e57610b9d6118c1565b5b906000526020600020906004020160010181905550505050565b610bc06110fc565b610bca60006113c7565b565b610bd46110fc565b610bdc610afb565b8060038190555050565b600181565b60008060009054906101000a900473ffffffffffffffffffffffffffffffffffffffff16905090565b60008282610c229190611a0f565b905092915050565b6006602052816000526040600020602052806000526040600020600091509150508060000154908060010154905082565b60008060058481548110610c7257610c716118c1565b5b9060005260206000209060040201905060006006600086815260200190815260200160002060008573ffffffffffffffffffffffffffffffffffffffff1673ffffffffffffffffffffffffffffffffffffffff168152602001908152602001600020905060008260030154905060008360000160009054906101000a900473ffffffffffffffffffffffffffffffffffffffff1673ffffffffffffffffffffffffffffffffffffffff166370a08231306040518263ffffffff1660e01b8152600401610d3e9190611781565b602060405180830381865afa158015610d5b573d6000803e3d6000fd5b505050506040513d601f19601f82011682018060405250810190610d7f9190611ac3565b9050836002015443118015610d95575060008114155b15610e06576000610daa856002015443610c14565b90506000600754866001015460035484610dc4919061196d565b610dce919061196d565b610dd891906119de565b90508264e8d4a5100082610dec919061196d565b610df691906119de565b84610e01919061188d565b935050505b826001015464e8d4a51000838560000154610e21919061196d565b610e2b91906119de565b610e359190611a0f565b94505050505092915050565b610e49611183565b600060058381548110610e5f57610e5e6118c1565b5b9060005260206000209060040201905060006006600085815260200190815260200160002060003373ffffffffffffffffffffffffffffffffffffffff1673ffffffffffffffffffffffffffffffffffffffff1681526020019081526020016000209050610ecc846107e9565b600081600001541115610f26576000816001015464e8d4a5100084600301548460000154610efa919061196d565b610f0491906119de565b610f0e9190611a0f565b90506000811115610f2457610f2333826111c9565b5b505b6000831115610fed578160000160009054906101000a900473ffffffffffffffffffffffffffffffffffffffff1673ffffffffffffffffffffffffffffffffffffffff166323b872dd3330866040518463ffffffff1660e01b8152600401610f9093929190611b38565b6020604051808303816000875af1158015610faf573d6000803e3d6000fd5b505050506040513d601f19601f82011682018060405250810190610fd39190611a81565b50828160000154610fe4919061188d565b81600001819055505b64e8d4a5100082600301548260000154611007919061196d565b61101191906119de565b8160010181905550833373ffffffffffffffffffffffffffffffffffffffff167f90890809c654f11d6e72a28fa60149770a0d11ec6c92319d6ceb2bb0a4ea1a158560405161106091906114ac565b60405180910390a350506110726113be565b5050565b61107e6110fc565b600073ffffffffffffffffffffffffffffffffffffffff168173ffffffffffffffffffffffffffffffffffffffff16036110f05760006040517f1e4fbdf70000000000000000000000000000000000000000000000000000000081526004016110e79190611781565b60405180910390fd5b6110f9816113c7565b50565b61110461148b565b73ffffffffffffffffffffffffffffffffffffffff16611122610beb565b73ffffffffffffffffffffffffffffffffffffffff16146111815761114561148b565b6040517f118cdaa70000000000000000000000000000000000000000000000000000000081526004016111789190611781565b60405180910390fd5b565b6002600154036111bf576040517f3ee5aeb500000000000000000000000000000000000000000000000000000000815260040160405180910390fd5b6002600181905550565b6000600260009054906101000a900473ffffffffffffffffffffffffffffffffffffffff1673ffffffffffffffffffffffffffffffffffffffff166370a08231306040518263ffffffff1660e01b81526004016112269190611781565b602060405180830381865afa158015611243573d6000803e3d6000fd5b505050506040513d601f19601f820116820180604052508101906112679190611ac3565b90508082111561131757600260009054906101000a900473ffffffffffffffffffffffffffffffffffffffff1673ffffffffffffffffffffffffffffffffffffffff1663a9059cbb84836040518363ffffffff1660e01b81526004016112ce929190611a43565b6020604051808303816000875af11580156112ed573d6000803e3d6000fd5b505050506040513d601f19601f820116820180604052508101906113119190611a81565b506113b9565b600260009054906101000a900473ffffffffffffffffffffffffffffffffffffffff1673ffffffffffffffffffffffffffffffffffffffff1663a9059cbb84846040518363ffffffff1660e01b8152600401611374929190611a43565b6020604051808303816000875af1158015611393573d6000803e3d6000fd5b505050506040513d601f19601f820116820180604052508101906113b79190611a81565b505b505050565b60018081905550565b60008060009054906101000a900473ffffffffffffffffffffffffffffffffffffffff169050816000806101000a81548173ffffffffffffffffffffffffffffffffffffffff021916908373ffffffffffffffffffffffffffffffffffffffff1602179055508173ffffffffffffffffffffffffffffffffffffffff168173ffffffffffffffffffffffffffffffffffffffff167f8be0079c531659141344cd1fd0a4f28419497f9722a3daafe3b4186f6b6457e060405160405180910390a35050565b600033905090565b6000819050919050565b6114a681611493565b82525050565b60006020820190506114c1600083018461149d565b92915050565b600080fd5b6114d581611493565b81146114e057600080fd5b50565b6000813590506114f2816114cc565b92915050565b60006020828403121561150e5761150d6114c7565b5b600061151c848285016114e3565b91505092915050565b600073ffffffffffffffffffffffffffffffffffffffff82169050919050565b6000819050919050565b600061156a61156561156084611525565b611545565b611525565b9050919050565b600061157c8261154f565b9050919050565b600061158e82611571565b9050919050565b61159e81611583565b82525050565b60006080820190506115b96000830187611595565b6115c6602083018661149d565b6115d3604083018561149d565b6115e0606083018461149d565b95945050505050565b60006115f482611525565b9050919050565b6000611606826115e9565b9050919050565b611616816115fb565b811461162157600080fd5b50565b6000813590506116338161160d565b92915050565b60008115159050919050565b61164e81611639565b811461165957600080fd5b50565b60008135905061166b81611645565b92915050565b60008060006060848603121561168a576116896114c7565b5b6000611698868287016114e3565b93505060206116a986828701611624565b92505060406116ba8682870161165c565b9150509250925092565b600080604083850312156116db576116da6114c7565b5b60006116e9858286016114e3565b92505060206116fa858286016114e3565b9150509250929050565b60006020820190506117196000830184611595565b92915050565b600080600060608486031215611738576117376114c7565b5b6000611746868287016114e3565b9350506020611757868287016114e3565b92505060406117688682870161165c565b9150509250925092565b61177b816115e9565b82525050565b60006020820190506117966000830184611772565b92915050565b6117a5816115e9565b81146117b057600080fd5b50565b6000813590506117c28161179c565b92915050565b600080604083850312156117df576117de6114c7565b5b60006117ed858286016114e3565b92505060206117fe858286016117b3565b9150509250929050565b600060408201905061181d600083018561149d565b61182a602083018461149d565b9392505050565b600060208284031215611847576118466114c7565b5b6000611855848285016117b3565b91505092915050565b7f4e487b7100000000000000000000000000000000000000000000000000000000600052601160045260246000fd5b600061189882611493565b91506118a383611493565b92508282019050808211156118bb576118ba61185e565b5b92915050565b7f4e487b7100000000000000000000000000000000000000000000000000000000600052603260045260246000fd5b600082825260208201905092915050565b7f77697468647261773a206e6f7420676f6f640000000000000000000000000000600082015250565b60006119376012836118f0565b915061194282611901565b602082019050919050565b600060208201905081810360008301526119668161192a565b9050919050565b600061197882611493565b915061198383611493565b925082820261199181611493565b915082820484148315176119a8576119a761185e565b5b5092915050565b7f4e487b7100000000000000000000000000000000000000000000000000000000600052601260045260246000fd5b60006119e982611493565b91506119f483611493565b925082611a0457611a036119af565b5b828204905092915050565b6000611a1a82611493565b9150611a2583611493565b9250828203905081811115611a3d57611a3c61185e565b5b92915050565b6000604082019050611a586000830185611772565b611a65602083018461149d565b9392505050565b600081519050611a7b81611645565b92915050565b600060208284031215611a9757611a966114c7565b5b6000611aa584828501611a6c565b91505092915050565b600081519050611abd816114cc565b92915050565b600060208284031215611ad957611ad86114c7565b5b6000611ae784828501611aae565b91505092915050565b6000611afb82611493565b91507fffffffffffffffffffffffffffffffffffffffffffffffffffffffffffffffff8203611b2d57611b2c61185e565b5b600182019050919050565b6000606082019050611b4d6000830186611772565b611b5a6020830185611772565b611b67604083018461149d565b94935050505056fea26469706673582212200378ef7045261b1f27c8846c6395537adc35195dd67b89d165248c226688cda564736f6c63430008140033",
  "linkReferences": {},
  "deployedLinkReferences": {}
}