{
  "_format": "hh-sol-artifact-1",
  "contractName": "Faucet",
  "sourceName": "contracts/Faucet.sol",
  "abi": [
    {
      "inputs": [],
      "stateMutability": "nonpayable",
      "type": "constructor"
    },
    {
      "inputs": [
        {
          "internalType": "address",
          "name": "owner",
          "type": "address"
        }
      ],
      "name": "OwnableInvalidOwner",
      "type": "error"
    },
    {
      "inputs": [
        {
          "internalType": "address",
          "name": "account",
          "type": "address"
        }
      ],
      "name": "OwnableUnauthorizedAccount",
      "type": "error"
    },
    {
      "anonymous": false,
      "inputs": [
        {
          "indexed": true,
          "internalType": "address",
          "name": "previousOwner",
          "type": "address"
        },
        {
          "indexed": true,
          "internalType": "address",
          "name": "newOwner",
          "type": "address"
        }
      ],
      "name": "OwnershipTransferred",
      "type": "event"
    },
    {
      "inputs": [
        {
          "internalType": "address",
          "name": "token",
          "type": "address"
        }
      ],
      "name": "addToken",
      "outputs": [],
      "stateMutability": "nonpayable",
      "type": "function"
    },
    {
      "inputs": [
        {
          "internalType": "address",
          "name": "",
          "type": "address"
        }
      ],
      "name": "allowedTokens",
      "outputs": [
        {
          "internalType": "bool",
          "name": "",
          "type": "bool"
        }
      ],
      "stateMutability": "view",
      "type": "function"
    },
    {
      "inputs": [
        {
          "internalType": "address",
          "name": "token",
          "type": "address"
        }
      ],
      "name": "claim",
      "outputs": [],
      "stateMutability": "nonpayable",
      "type": "function"
    },
    {
      "inputs": [],
      "name": "claimAmount",
      "outputs": [
        {
          "internalType": "uint256",
          "name": "",
          "type": "uint256"
        }
      ],
      "stateMutability": "view",
      "type": "function"
    },
    {
      "inputs": [],
      "name": "claimCooldown",
      "outputs": [
        {
          "internalType": "uint256",
          "name": "",
          "type": "uint256"
        }
      ],
      "stateMutability": "view",
      "type": "function"
    },
    {
      "inputs": [
        {
          "internalType": "address",
          "name": "",
          "type": "address"
        }
      ],
      "name": "lastClaim",
      "outputs": [
        {
          "internalType": "uint256",
          "name": "",
          "type": "uint256"
        }
      ],
      "stateMutability": "view",
      "type": "function"
    },
    {
      "inputs": [],
      "name": "owner",
      "outputs": [
        {
          "internalType": "address",
          "name": "",
          "type": "address"
        }
      ],
      "stateMutability": "view",
      "type": "function"
    },
    {
      "inputs": [],
      "name": "renounceOwnership",
      "outputs": [],
      "stateMutability": "nonpayable",
      "type": "function"
    },
    {
      "inputs": [
        {
          "internalType": "uint256",
          "name": "amount",
          "type": "uint256"
        }
      ],
      "name": "setClaimAmount",
      "outputs": [],
      "stateMutability": "nonpayable",
      "type": "function"
    },
    {
      "inputs": [
        {
          "internalType": "uint256",
          "name": "cooldown",
          "type": "uint256"
        }
      ],
      "name": "setClaimCooldown",
      "outputs": [],
      "stateMutability": "nonpayable",
      "type": "function"
    },
    {
      "inputs": [
        {
          "internalType": "uint256",
          "name": "",
          "type": "uint256"
        }
      ],
      "name": "tokens",
      "outputs": [
        {
          "internalType": "address",
          "name": "",
          "type": "address"
        }
      ],
      "stateMutability": "view",
      "type": "function"
    },
    {
      "inputs": [
        {
          "internalType": "address",
          "name": "newOwner",
          "type": "address"
        }
      ],
      "name": "transferOwnership",
      "outputs": [],
      "stateMutability": "nonpayable",
      "type": "function"
    }
  ],
  "bytecode": "0x608060405268056bc75e2d631000006002556201518060035534801561002457600080fd5b5033600073ffffffffffffffffffffffffffffffffffffffff168173ffffffffffffffffffffffffffffffffffffffff16036100985760006040517f1e4fbdf700000000000000000000000000000000000000000000000000000000815260040161008f91906101b2565b60405180910390fd5b6100a7816100ad60201b60201c565b506101cd565b60008060009054906101000a900473ffffffffffffffffffffffffffffffffffffffff169050816000806101000a81548173ffffffffffffffffffffffffffffffffffffffff021916908373ffffffffffffffffffffffffffffffffffffffff1602179055508173ffffffffffffffffffffffffffffffffffffffff168173ffffffffffffffffffffffffffffffffffffffff167f8be0079c531659141344cd1fd0a4f28419497f9722a3daafe3b4186f6b6457e060405160405180910390a35050565b600073ffffffffffffffffffffffffffffffffffffffff82169050919050565b600061019c82610171565b9050919050565b6101ac81610191565b82525050565b60006020820190506101c760008301846101a3565b92915050565b610b20806101dc6000396000f3fe608060405234801561001057600080fd5b50600436106100b45760003560e01c80638da5cb5b116100715780638da5cb5b14610179578063b1c7ef0c14610197578063d48bfca7146101b3578063e744092e146101cf578063f2fde38b146101ff578063fdea36571461021b576100b4565b80631e83409a146100b95780634f64b2be146100d557806359c9eb90146101055780635c16e15e14610121578063715018a614610151578063830953ab1461015b575b600080fd5b6100d360048036038101906100ce9190610802565b610239565b005b6100ef60048036038101906100ea9190610865565b61041c565b6040516100fc91906108a1565b60405180910390f35b61011f600480360381019061011a9190610865565b61045b565b005b61013b60048036038101906101369190610802565b61046d565b60405161014891906108cb565b60405180910390f35b610159610485565b005b610163610499565b60405161017091906108cb565b60405180910390f35b61018161049f565b60405161018e91906108a1565b60405180910390f35b6101b160048036038101906101ac9190610865565b6104c8565b005b6101cd60048036038101906101c89190610802565b6104da565b005b6101e960048036038101906101e49190610802565b6105a0565b6040516101f69190610901565b60405180910390f35b61021960048036038101906102149190610802565b6105c0565b005b610223610646565b60405161023091906108cb565b60405180910390f35b600460008273ffffffffffffffffffffffffffffffffffffffff1673ffffffffffffffffffffffffffffffffffffffff16815260200190815260200160002060009054906101000a900460ff166102c5576040517f08c379a00000000000000000000000000000000000000000000000000000000081526004016102bc90610979565b60405180910390fd5b600354600160003373ffffffffffffffffffffffffffffffffffffffff1673ffffffffffffffffffffffffffffffffffffffff1681526020019081526020016000205461031291906109c8565b421015610354576040517f08c379a000000000000000000000000000000000000000000000000000000000815260040161034b90610a48565b60405180910390fd5b42600160003373ffffffffffffffffffffffffffffffffffffffff1673ffffffffffffffffffffffffffffffffffffffff168152602001908152602001600020819055508073ffffffffffffffffffffffffffffffffffffffff1663a9059cbb336002546040518363ffffffff1660e01b81526004016103d5929190610a68565b6020604051808303816000875af11580156103f4573d6000803e3d6000fd5b505050506040513d601f19601f820116820180604052508101906104189190610abd565b5050565b6005818154811061042c57600080fd5b906000526020600020016000915054906101000a900473ffffffffffffffffffffffffffffffffffffffff1681565b61046361064c565b8060038190555050565b60016020528060005260406000206000915090505481565b61048d61064c565b61049760006106d3565b565b60025481565b60008060009054906101000a900473ffffffffffffffffffffffffffffffffffffffff16905090565b6104d061064c565b8060028190555050565b6104e261064c565b6001600460008373ffffffffffffffffffffffffffffffffffffffff1673ffffffffffffffffffffffffffffffffffffffff16815260200190815260200160002060006101000a81548160ff0219169083151502179055506005819080600181540180825580915050600190039060005260206000200160009091909190916101000a81548173ffffffffffffffffffffffffffffffffffffffff021916908373ffffffffffffffffffffffffffffffffffffffff16021790555050565b60046020528060005260406000206000915054906101000a900460ff1681565b6105c861064c565b600073ffffffffffffffffffffffffffffffffffffffff168173ffffffffffffffffffffffffffffffffffffffff160361063a5760006040517f1e4fbdf700000000000000000000000000000000000000000000000000000000815260040161063191906108a1565b60405180910390fd5b610643816106d3565b50565b60035481565b610654610797565b73ffffffffffffffffffffffffffffffffffffffff1661067261049f565b73ffffffffffffffffffffffffffffffffffffffff16146106d157610695610797565b6040517f118cdaa70000000000000000000000000000000000000000000000000000000081526004016106c891906108a1565b60405180910390fd5b565b60008060009054906101000a900473ffffffffffffffffffffffffffffffffffffffff169050816000806101000a81548173ffffffffffffffffffffffffffffffffffffffff021916908373ffffffffffffffffffffffffffffffffffffffff1602179055508173ffffffffffffffffffffffffffffffffffffffff168173ffffffffffffffffffffffffffffffffffffffff167f8be0079c531659141344cd1fd0a4f28419497f9722a3daafe3b4186f6b6457e060405160405180910390a35050565b600033905090565b600080fd5b600073ffffffffffffffffffffffffffffffffffffffff82169050919050565b60006107cf826107a4565b9050919050565b6107df816107c4565b81146107ea57600080fd5b50565b6000813590506107fc816107d6565b92915050565b6000602082840312156108185761081761079f565b5b6000610826848285016107ed565b91505092915050565b6000819050919050565b6108428161082f565b811461084d57600080fd5b50565b60008135905061085f81610839565b92915050565b60006020828403121561087b5761087a61079f565b5b600061088984828501610850565b91505092915050565b61089b816107c4565b82525050565b60006020820190506108b66000830184610892565b92915050565b6108c58161082f565b82525050565b60006020820190506108e060008301846108bc565b92915050565b60008115159050919050565b6108fb816108e6565b82525050565b600060208201905061091660008301846108f2565b92915050565b600082825260208201905092915050565b7f546f6b656e206e6f7420616c6c6f776564000000000000000000000000000000600082015250565b600061096360118361091c565b915061096e8261092d565b602082019050919050565b6000602082019050818103600083015261099281610956565b9050919050565b7f4e487b7100000000000000000000000000000000000000000000000000000000600052601160045260246000fd5b60006109d38261082f565b91506109de8361082f565b92508282019050808211156109f6576109f5610999565b5b92915050565b7f436f6f6c646f776e206e6f742070617373656400000000000000000000000000600082015250565b6000610a3260138361091c565b9150610a3d826109fc565b602082019050919050565b60006020820190508181036000830152610a6181610a25565b9050919050565b6000604082019050610a7d6000830185610892565b610a8a60208301846108bc565b9392505050565b610a9a816108e6565b8114610aa557600080fd5b50565b600081519050610ab781610a91565b92915050565b600060208284031215610ad357610ad261079f565b5b6000610ae184828501610aa8565b9150509291505056fea26469706673582212207df523b2dc725817b027dcb9dbb7f1709c63521a52505d71cb207379c3c0c9c664736f6c63430008140033",
  "linkReferences": {},
  "deployedLinkReferences": {}
}